{
  "address": "0xE92a59B39EF6b039b436FaEc33539694Fda16341",
  "abi": [
    {
      "inputs": [
        {
          "internalType": "contract IPollFactory",
          "name": "_pollFactory",
          "type": "address"
        },
        {
          "internalType": "contract IMessageProcessorFactory",
          "name": "_messageProcessorFactory",
          "type": "address"
        },
        {
          "internalType": "contract ITallyFactory",
          "name": "_tallyFactory",
          "type": "address"
        },
        {
          "internalType": "uint256[5]",
          "name": "_emptyBallotRoots",
          "type": "uint256[5]"
        }
      ],
      "stateMutability": "payable",
      "type": "constructor"
    },
    {
      "inputs": [],
      "name": "DepthTooLarge",
      "type": "error"
    },
    {
      "inputs": [],
      "name": "InvalidMessage",
      "type": "error"
    },
    {
      "inputs": [],
      "name": "InvalidPubKey",
      "type": "error"
    },
    {
      "inputs": [
        {
          "internalType": "address",
          "name": "owner",
          "type": "address"
        }
      ],
      "name": "OwnableInvalidOwner",
      "type": "error"
    },
    {
      "inputs": [
        {
          "internalType": "address",
          "name": "account",
          "type": "address"
        }
      ],
      "name": "OwnableUnauthorizedAccount",
      "type": "error"
    },
    {
      "inputs": [],
      "name": "PoseidonHashLibrariesNotLinked",
      "type": "error"
    },
    {
      "inputs": [],
      "name": "TooManySignups",
      "type": "error"
    },
    {
      "anonymous": false,
      "inputs": [
        {
          "indexed": true,
          "internalType": "uint256",
          "name": "_gameId",
          "type": "uint256"
        },
        {
          "indexed": true,
          "internalType": "uint256",
          "name": "_pollId",
          "type": "uint256"
        },
        {
          "indexed": false,
          "internalType": "enum DomainObjs.Mode",
          "name": "_mode",
          "type": "uint8"
        }
      ],
      "name": "DeployPoll",
      "type": "event"
    },
    {
      "anonymous": false,
      "inputs": [
        {
          "indexed": true,
          "internalType": "address",
          "name": "previousOwner",
          "type": "address"
        },
        {
          "indexed": true,
          "internalType": "address",
          "name": "newOwner",
          "type": "address"
        }
      ],
      "name": "OwnershipTransferred",
      "type": "event"
    },
    {
      "inputs": [],
      "name": "MESSAGE_DATA_LENGTH",
      "outputs": [
        {
          "internalType": "uint8",
          "name": "",
          "type": "uint8"
        }
      ],
      "stateMutability": "view",
      "type": "function"
    },
    {
      "inputs": [],
      "name": "coordinatorPubKey",
      "outputs": [
        {
          "internalType": "uint256",
          "name": "x",
          "type": "uint256"
        },
        {
          "internalType": "uint256",
          "name": "y",
          "type": "uint256"
        }
      ],
      "stateMutability": "view",
      "type": "function"
    },
    {
      "inputs": [
        {
          "internalType": "uint256",
          "name": "_duration",
          "type": "uint256"
        },
        {
          "components": [
            {
              "internalType": "address",
              "name": "addr",
              "type": "address"
            },
            {
              "internalType": "uint256",
              "name": "x",
              "type": "uint256"
            },
            {
              "internalType": "uint256",
              "name": "y",
              "type": "uint256"
            }
          ],
          "internalType": "struct Mafia.Player[]",
          "name": "_players",
          "type": "tuple[]"
        }
      ],
      "name": "createGame",
      "outputs": [],
      "stateMutability": "nonpayable",
      "type": "function"
    },
    {
      "inputs": [
        {
          "internalType": "uint256",
          "name": "_gameId",
          "type": "uint256"
        },
        {
          "internalType": "uint256",
          "name": "_duration",
          "type": "uint256"
        }
      ],
      "name": "createPoll",
      "outputs": [],
      "stateMutability": "nonpayable",
      "type": "function"
    },
    {
      "inputs": [
        {
          "internalType": "uint256",
          "name": "",
          "type": "uint256"
        }
      ],
      "name": "emptyBallotRoots",
      "outputs": [
        {
          "internalType": "uint256",
          "name": "",
          "type": "uint256"
        }
      ],
      "stateMutability": "view",
      "type": "function"
    },
    {
      "inputs": [
        {
          "internalType": "uint256[2]",
          "name": "array",
          "type": "uint256[2]"
        }
      ],
      "name": "hash2",
      "outputs": [
        {
          "internalType": "uint256",
          "name": "result",
          "type": "uint256"
        }
      ],
      "stateMutability": "pure",
      "type": "function"
    },
    {
      "inputs": [
        {
          "internalType": "uint256[3]",
          "name": "array",
          "type": "uint256[3]"
        }
      ],
      "name": "hash3",
      "outputs": [
        {
          "internalType": "uint256",
          "name": "result",
          "type": "uint256"
        }
      ],
      "stateMutability": "pure",
      "type": "function"
    },
    {
      "inputs": [
        {
          "internalType": "uint256[4]",
          "name": "array",
          "type": "uint256[4]"
        }
      ],
      "name": "hash4",
      "outputs": [
        {
          "internalType": "uint256",
          "name": "result",
          "type": "uint256"
        }
      ],
      "stateMutability": "pure",
      "type": "function"
    },
    {
      "inputs": [
        {
          "internalType": "uint256[5]",
          "name": "array",
          "type": "uint256[5]"
        }
      ],
      "name": "hash5",
      "outputs": [
        {
          "internalType": "uint256",
          "name": "result",
          "type": "uint256"
        }
      ],
      "stateMutability": "pure",
      "type": "function"
    },
    {
      "inputs": [
        {
          "internalType": "uint256",
          "name": "left",
          "type": "uint256"
        },
        {
          "internalType": "uint256",
          "name": "right",
          "type": "uint256"
        }
      ],
      "name": "hashLeftRight",
      "outputs": [
        {
          "internalType": "uint256",
          "name": "result",
          "type": "uint256"
        }
      ],
      "stateMutability": "pure",
      "type": "function"
    },
    {
      "inputs": [
        {
          "components": [
            {
              "internalType": "uint256[10]",
              "name": "data",
              "type": "uint256[10]"
            }
          ],
          "internalType": "struct DomainObjs.Message",
          "name": "_message",
          "type": "tuple"
        },
        {
          "components": [
            {
              "internalType": "uint256",
              "name": "x",
              "type": "uint256"
            },
            {
              "internalType": "uint256",
              "name": "y",
              "type": "uint256"
            }
          ],
          "internalType": "struct DomainObjs.PubKey",
          "name": "_encPubKey",
          "type": "tuple"
        }
      ],
      "name": "hashMessageAndEncPubKey",
      "outputs": [
        {
          "internalType": "uint256",
          "name": "msgHash",
          "type": "uint256"
        }
      ],
      "stateMutability": "pure",
      "type": "function"
    },
    {
      "inputs": [
        {
          "components": [
            {
              "components": [
                {
                  "internalType": "uint256",
                  "name": "x",
                  "type": "uint256"
                },
                {
                  "internalType": "uint256",
                  "name": "y",
                  "type": "uint256"
                }
              ],
              "internalType": "struct DomainObjs.PubKey",
              "name": "pubKey",
              "type": "tuple"
            },
            {
              "internalType": "uint256",
              "name": "voiceCreditBalance",
              "type": "uint256"
            },
            {
              "internalType": "uint256",
              "name": "timestamp",
              "type": "uint256"
            }
          ],
          "internalType": "struct DomainObjs.StateLeaf",
          "name": "_stateLeaf",
          "type": "tuple"
        }
      ],
      "name": "hashStateLeaf",
      "outputs": [
        {
          "internalType": "uint256",
          "name": "ciphertext",
          "type": "uint256"
        }
      ],
      "stateMutability": "pure",
      "type": "function"
    },
    {
      "inputs": [],
      "name": "messageProcessorFactory",
      "outputs": [
        {
          "internalType": "contract IMessageProcessorFactory",
          "name": "",
          "type": "address"
        }
      ],
      "stateMutability": "view",
      "type": "function"
    },
    {
      "inputs": [],
      "name": "owner",
      "outputs": [
        {
          "internalType": "address",
          "name": "",
          "type": "address"
        }
      ],
      "stateMutability": "view",
      "type": "function"
    },
    {
      "inputs": [
        {
          "internalType": "uint256[2]",
          "name": "dataToPad",
          "type": "uint256[2]"
        }
      ],
      "name": "padAndHashMessage",
      "outputs": [
        {
          "components": [
            {
              "internalType": "uint256[10]",
              "name": "data",
              "type": "uint256[10]"
            }
          ],
          "internalType": "struct DomainObjs.Message",
          "name": "message",
          "type": "tuple"
        },
        {
          "components": [
            {
              "internalType": "uint256",
              "name": "x",
              "type": "uint256"
            },
            {
              "internalType": "uint256",
              "name": "y",
              "type": "uint256"
            }
          ],
          "internalType": "struct DomainObjs.PubKey",
          "name": "padKey",
          "type": "tuple"
        },
        {
          "internalType": "uint256",
          "name": "msgHash",
          "type": "uint256"
        }
      ],
      "stateMutability": "pure",
      "type": "function"
    },
    {
      "inputs": [],
      "name": "pollFactory",
      "outputs": [
        {
          "internalType": "contract IPollFactory",
          "name": "",
          "type": "address"
        }
      ],
      "stateMutability": "view",
      "type": "function"
    },
    {
      "inputs": [],
      "name": "renounceOwnership",
      "outputs": [],
      "stateMutability": "nonpayable",
      "type": "function"
    },
    {
      "inputs": [
        {
          "components": [
            {
              "internalType": "uint8",
              "name": "intStateTreeDepth",
              "type": "uint8"
            },
            {
              "internalType": "uint8",
              "name": "messageTreeSubDepth",
              "type": "uint8"
            },
            {
              "internalType": "uint8",
              "name": "messageTreeDepth",
              "type": "uint8"
            },
            {
              "internalType": "uint8",
              "name": "voteOptionTreeDepth",
              "type": "uint8"
            }
          ],
          "internalType": "struct Params.TreeDepths",
          "name": "_treeDepths",
          "type": "tuple"
        },
        {
          "components": [
            {
              "internalType": "uint256",
              "name": "x",
              "type": "uint256"
            },
            {
              "internalType": "uint256",
              "name": "y",
              "type": "uint256"
            }
          ],
          "internalType": "struct DomainObjs.PubKey",
          "name": "_coordinatorPubKey",
          "type": "tuple"
        },
        {
          "internalType": "address",
          "name": "_verifier",
          "type": "address"
        },
        {
          "internalType": "address",
          "name": "_vkRegistry",
          "type": "address"
        }
      ],
      "name": "setConfig",
      "outputs": [],
      "stateMutability": "nonpayable",
      "type": "function"
    },
    {
      "inputs": [
        {
          "internalType": "uint256[]",
          "name": "array",
          "type": "uint256[]"
        }
      ],
      "name": "sha256Hash",
      "outputs": [
        {
          "internalType": "uint256",
          "name": "result",
          "type": "uint256"
        }
      ],
      "stateMutability": "pure",
      "type": "function"
    },
    {
      "inputs": [],
      "name": "tallyFactory",
      "outputs": [
        {
          "internalType": "contract ITallyFactory",
          "name": "",
          "type": "address"
        }
      ],
      "stateMutability": "view",
      "type": "function"
    },
    {
      "inputs": [
        {
          "internalType": "address",
          "name": "newOwner",
          "type": "address"
        }
      ],
      "name": "transferOwnership",
      "outputs": [],
      "stateMutability": "nonpayable",
      "type": "function"
    },
    {
      "inputs": [],
      "name": "treeDepths",
      "outputs": [
        {
          "internalType": "uint8",
          "name": "intStateTreeDepth",
          "type": "uint8"
        },
        {
          "internalType": "uint8",
          "name": "messageTreeSubDepth",
          "type": "uint8"
        },
        {
          "internalType": "uint8",
          "name": "messageTreeDepth",
          "type": "uint8"
        },
        {
          "internalType": "uint8",
          "name": "voteOptionTreeDepth",
          "type": "uint8"
        }
      ],
      "stateMutability": "view",
      "type": "function"
    },
    {
      "inputs": [
        {
          "internalType": "uint256",
          "name": "_gameId",
          "type": "uint256"
        },
        {
          "internalType": "address",
          "name": "removedPlayer",
          "type": "address"
        }
      ],
      "name": "updatePlayers",
      "outputs": [],
      "stateMutability": "nonpayable",
      "type": "function"
    },
    {
      "inputs": [],
      "name": "verifier",
      "outputs": [
        {
          "internalType": "address",
          "name": "",
          "type": "address"
        }
      ],
      "stateMutability": "view",
      "type": "function"
    },
    {
      "inputs": [],
      "name": "vkRegistry",
      "outputs": [
        {
          "internalType": "address",
          "name": "",
          "type": "address"
        }
      ],
      "stateMutability": "view",
      "type": "function"
    }
  ],
  "transactionHash": "0x44ee5dbb857aaa5cc784b3f9b4e334d19eb55b019b1ee473ccc796cfb56f8284",
  "args": [
    "0xB5edCDA0A565b6d79Ef2d3DA49B715fC75D8744E",
    "0x8a6D964F1d8aC3E1783106cBA1ba2a4abc6E6C5B",
    "0x2bE50060A00c6F082222B1A71cd06A7cBE1BAab8",
    [
      "16015576667038038422103932363190100635991292382181099511410843174865570503661",
      "166510078825589460025300915201657086611944528317298994959376081297530246971",
      "10057734083972610459557695472359628128485394923403014377687504571662791937025",
      "4904828619307091008204672239231377290495002626534171783829482835985709082773",
      "18694062287284245784028624966421731916526814537891066525886866373016385890569"
    ]
  ],
  "numDeployments": 1,
  "solcInputHash": "5da1ac7657407e67ddc9076546f332e7",
  "bytecode": "0x60e060409080825262001cfb80380380916200001c828562000295565b83398101906101009081818403126200027a5780516001600160a01b039290919083831683036200027a576020948583015185811681036200027a57878401519186831683036200027a5780607f860112156200027a5788516001600160401b039590949060a08601878111878210176200027f578b52859181019283116200027a5760608a9101915b8383106200026957505050503315620002515760008054336001600160a01b03198216811783558a51989297929091167f8be0079c531659141344cd1fd0a4f28419497f9722a3daafe3b4186f6b6457e08880a360805260a05260c052825b600581106200023d5750508285019081118382101762000229578452600180835283830181905284516314d2f97b60e11b81529282600485015b86600283106200021657935050505082604481736679BE25dDA6310cafe79E7D3062F7Ad5fc177c35af49283156200020a578193620001d0575b50505015620001c05751611a419081620002ba8239608051818181610498015261117d015260a0518181816105060152611236015260c05181818161057e0152610dec0152f35b51633d7ba68560e21b8152600490fd5b9091809350813d831162000202575b620001eb818362000295565b81010312620001ff57505138808062000179565b80fd5b503d620001df565b508351903d90823e3d90fd5b835182529283019291840191016200013f565b634e487b7160e01b82526041600452602482fd5b815160088201559085019060010162000105565b8751631e4fbdf760e01b815260006004820152602490fd5b82518152918101918a9101620000a6565b600080fd5b634e487b7160e01b600052604160045260246000fd5b601f909101601f19168101906001600160401b038211908210176200027f5760405256fe608060408181526004908136101561001657600080fd5b600092833560e01c908163055575eb146112225750806313fb8932146111f95780632b7ac3f3146111d157806331e766a5146111ac578063343393b5146111685780633dfb88b21461110d57806346a6f4a814610fce57806358bfc37914610e7b5780635bb9399514610e4a57806362a361bb14610e1b57806362b31f1e14610dd757806364e0ece114610cb0578063683f3dc314610c94578063715018a614610c3a5780637511a64f146109445780637d0a81c8146108ea5780638a2a3dfb1461084d5780638da5cb5b146108255780639cfced97146107c3578063ac98e5df14610781578063b87802c814610755578063bad62d20146103ef578063bea140b3146102ee578063edbfe83f146101c75763f2fde38b1461013757600080fd5b346101c35760203660031901126101c3576001600160a01b038235818116939192908490036101bf57610168611399565b83156101a957505082546001600160a01b0319811683178455167f8be0079c531659141344cd1fd0a4f28419497f9722a3daafe3b4186f6b6457e08380a380f35b51631e4fbdf760e01b8152908101849052602490fd5b8480fd5b8280fd5b8382346102ea57806003193601126102ea5736602312156102ea576101eb36611346565b9080516101f7816112cf565b8151610202816112eb565b610140918236833752815190610217826112b3565b848252846020809301528183519461022e866112eb565b82368737805186520151828501528251610247816112b3565b7f171e826ad4a870fd925e0bf0e87884e70e080879c2205ef10114f28a3b6f6dd78152828101927f2bd407d897fbbca9f88adfd2d15252e69de8c1564eb4d3d27162e259172f1a1d845284519561029d876112cf565b86526102a9828761194d565b945195519690865b600a83106102d5575050506101a09550519084015251610160830152610180820152f35b81806001928b518152019901920191976102b1565b5080fd5b50346101c35760603660031901126101c35736602312156101c357805161031481611297565b806064913683116103eb57849194905b8382106103db57505082516304b98e1d60e31b815293849186919083015b600383106103c15750505060209181732Bcfe85c9BBdEc18F48583655b0aFCcc4B084BB75af49182156103b7578392610380575b6020838351908152f35b9091506020813d82116103af575b8161039b60209383611324565b810103126101c35760209250519038610376565b3d915061038e565b81513d85823e3d90fd5b815181528693506001929092019160209182019101610342565b8135815260209182019101610324565b8580fd5b509190346102ea5761040036611383565b610408611399565b600180549560001994601888901c60ff16868101818111610742576005111561072f576007810154908351956370f7b36160e01b87528387015260ff60249a8181168c890152818160081c16604489015260101c166064870152608486015260025460a486015260035460c48601523060e486015261010485015260209360018060a01b03908581610124818c867f0000000000000000000000000000000000000000000000000000000000000000165af1908115610725578991610708575b508180845416918160055416865193633634487360e01b8552868501528c8401521691826044830152336064830152856084830152868260a4818d857f0000000000000000000000000000000000000000000000000000000000000000165af19182156106fe57908a9182936106df575b50878c60c483885416848060055416978b51988995869463431a717560e01b86528d86015284015289604484015216958660648301523360848301528b60a4830152857f0000000000000000000000000000000000000000000000000000000000000000165af19283156106d5578b936106a6575b50846105b98a6113c5565b5001938651906105c882611297565b815288810192835281878201941684528454600160401b811015610694578c898201808855821015610682576002929160038c838a88955220910201915116936bffffffffffffffffffffffff60a01b9485835416178255838a8301915116858254161790550192511690825416179055549586019586116106705750519081527f60a11d5f71919d2a88fed66d85caaf6d1541f5b35e59875eaa9fd431fef071bf9190a380f35b634e487b7160e01b8752601190528686fd5b634e487b7160e01b8152603288528e90fd5b634e487b7160e01b8d52604187528d8dfd5b6106c7919350883d8a116106ce575b6106bf8183611324565b810190611463565b91386105ae565b503d6106b5565b86513d8d823e3d90fd5b6106f7919350883d8a116106ce576106bf8183611324565b9138610539565b85513d8c823e3d90fd5b61071f9150863d88116106ce576106bf8183611324565b386104c8565b84513d8b823e3d90fd5b634e487b7160e01b885260328252602488fd5b634e487b7160e01b895260118352602489fd5b5090346101c35760203660031901126101c3573560058110156101c35760209250600801549051908152f35b8382346102ea57816003193601126102ea5760809060ff6001548251928282168452828260081c166020850152828260101c169084015260181c166060820152f35b5090346101c35760a03660031901126101c35736602312156101c3578151906107eb82611308565b8160a4913683116103eb5760209550905b8282106108165750505061080f9061159d565b9051908152f35b813581529085019085016107fc565b8382346102ea57816003193601126102ea57905490516001600160a01b039091168152602090f35b5082346108d357366003190161018081126102ea57610140136108d357815190610876826112cf565b36602312156108d357825161088a816112eb565b80610144953687116108e657905b8682106108d6575050825282610143193601126108d3575060209261080f918351916108c3836112b3565b358252610164358583015261194d565b80fd5b8135815260209182019101610898565b8380fd5b5090346101c357366003190192608084126108d3578280519461090c86611297565b126108d3575060209261080f91835190610925826112b3565b3581526024358582015281526044358482015260643583820152611911565b50346101c357806003193601126101c35760249081359167ffffffffffffffff918284116103eb57366023850112156103eb57838501359283116103eb5781840193823691606086020101116103eb5761099c611399565b600654600160401b9081811015610c2857600191828201806006556109c0836113c5565b50508211610c16576109d1826113c5565b509042825588354201804211610c04578483015560038a9201915b878110610b8d57505050610a016005916113c5565b5001805469ffffffffffffffffffff1916601f17815593610a2185611661565b875b818110610a2e578880f35b610a3981838961143b565b606081360312610b8957845190610a4f82611297565b6001600160a01b0381358181168103610b8557835260209182810135908884860191838352013591898601928084527f30644e72e131a029b85045b68181585d2833e84879b9709143e1f593f0000001808080858196099380098180828187620292fc090894620292f809098b088181811115610b5c575b508103908111610b48578f9008610b3857928d610b33969593610b1d600794610b2e975190518d5191610af9836112b3565b8252858201528c5190610b0b82611297565b8152606485820152428d820152611911565b94511690525280878d2055886117e6565b611416565b610a23565b88516379fae7af60e01b81528d90fd5b5050634e487b7160e01b8e5260118d52898efd5b909150828101809111610b70579038610ac7565b5050634e487b7160e01b8f525060118d52898efd5b8c80fd5b8980fd5b610b9881898b61143b565b356001600160a01b0381168103610c0057835483811015610bee57610be99291610bca8289610b2e940188558761144b565b90919082549060031b9160018060a01b03809116831b921b1916179055565b6109ec565b634e487b7160e01b8d5260418c52888dfd5b8b80fd5b634e487b7160e01b8b5260118a52868bfd5b634e487b7160e01b8952601188528489fd5b634e487b7160e01b8852604187528388fd5b83346108d357806003193601126108d357610c53611399565b80546001600160a01b03198116825581906001600160a01b03167f8be0079c531659141344cd1fd0a4f28419497f9722a3daafe3b4186f6b6457e08280a380f35b8382346102ea57816003193601126102ea5760209051600a8152f35b50346101c357366003190161010081126108e6576080136101c357805191610cd783611265565b803560ff811681036101bf5783526024359160ff831683036101bf57602084019283526044359260ff841684036103eb578185019384526064359160ff83168303610dd3576060860192835280608319360112610dd3575190610d39826112b3565b6084358252602082019260a435845260c4359560018060a01b0397888816809803610b895760e435988916809903610b895760ff90610d76611399565b511663ff00000062ff000061ff00600154965160081b16935160101b16935160181b169363ffffffff19161717171760015551600255516003556bffffffffffffffffffffffff60a01b9182825416179055600554161760055580f35b8680fd5b8382346102ea57816003193601126102ea57517f00000000000000000000000000000000000000000000000000000000000000006001600160a01b03168152602090f35b8382346102ea57806003193601126102ea5736602312156102ea5760209061080f610e4536611346565b6114b0565b8382346102ea5760209061080f610e6036611383565b835191610e6c836112b3565b843684378252848201526114b0565b5082346108d357602092836003193601126102ea57803567ffffffffffffffff918282116108e657366023830112156108e65781810135928311610fbb57508160051b90845192610ece87840185611324565b835285830160248193830101913683116103eb5791859391602489969401905b828210610fa957505086519251858401929150845b818110610f905750505081610f209103601f198101835282611324565b84519080519084845b838110610f7b5750505081908101838152039060025afa15610f70577f30644e72e131a029b85045b68181585d2833e84879b9709143e1f593f00000019051069051908152f35b9051903d90823e3d90fd5b82810182015185820152879550869101610f29565b8251845289968896509384019390920191600101610f03565b81358152879550908601908601610eee565b634e487b7160e01b845260419052602483fd5b50346101c357806003193601126101c3576001600160a01b0360248035828116959291908690036101c35793611002611399565b61100c81356113c5565b5060058101805469ffffffffffffffffffff1916601f1781559690919061103288611661565b600392830191855b835480821015611109578387611050848861144b565b905490891b1c161461108d575b50808661106d611088938761144b565b905490881b1c1688526007602052610b2e898920548c6117e6565b61103a565b600019908082019081116110f757876110a96110ba928861144b565b905490891b1c16610bca848861144b565b845480156110e5576110889291016110d2818761144b565b898254918a1b1b1916905585559061105d565b634e487b7160e01b8952603184528a89fd5b634e487b7160e01b8952601184528a89fd5b8780f35b5090346101c35760803660031901126101c35736602312156101c35781519061113582611265565b816084913683116103eb5760209550905b8282106111595750505061080f90611535565b81358152908501908501611146565b8382346102ea57816003193601126102ea57517f00000000000000000000000000000000000000000000000000000000000000006001600160a01b03168152602090f35b5082346108d357806003193601126108d3575060025460035482519182526020820152f35b5090346101c357826003193601126101c3575490516001600160a01b03909116815260209150f35b8382346102ea57816003193601126102ea5760055490516001600160a01b039091168152602090f35b8490346102ea57816003193601126102ea577f00000000000000000000000000000000000000000000000000000000000000006001600160a01b03168152602090f35b6080810190811067ffffffffffffffff82111761128157604052565b634e487b7160e01b600052604160045260246000fd5b6060810190811067ffffffffffffffff82111761128157604052565b6040810190811067ffffffffffffffff82111761128157604052565b6020810190811067ffffffffffffffff82111761128157604052565b610140810190811067ffffffffffffffff82111761128157604052565b60a0810190811067ffffffffffffffff82111761128157604052565b90601f8019910116810190811067ffffffffffffffff82111761128157604052565b9060405191611354836112b3565b82604491821161137e576004905b82821061136e57505050565b8135815260209182019101611362565b600080fd5b604090600319011261137e576004359060243590565b6000546001600160a01b031633036113ad57565b60405163118cdaa760e01b8152336004820152602490fd5b600654811015611400576007906006600052027ff652222313e28459528d920b65115c16c04f3efc82aaedc97be59f3f377c0d3f0190600090565b634e487b7160e01b600052603260045260246000fd5b60001981146114255760010190565b634e487b7160e01b600052601160045260246000fd5b9190811015611400576060020190565b80548210156114005760005260206000200190600090565b9081602091031261137e57516001600160a01b038116810361137e5790565b6040810192916000915b6002831061149957505050565b60019082518152602080910192019201919061148c565b60206114d091604051809381926314d2f97b60e11b835260048301611482565b0381736679BE25dDA6310cafe79E7D3062F7Ad5fc177c35af4908115611529576000916114fb575090565b906020823d8211611521575b8161151460209383611324565b810103126108d357505190565b3d9150611507565b6040513d6000823e3d90fd5b60405163248f667760e01b81529060049060008284015b83821061158657505050506020816084817311131bA5CA1507417940BcA73e274112b68185325af4908115611529576000916114fb575090565b60019083518152602080910193019101909161154c565b604051630926f44b60e31b815290600090600483015b600583106115ed5750505060208160a481734E2f5b0B7e0818B21839B4F26096775fd7e5E4285af4908115611529576000916114fb575090565b6001908251815260208091019201920191906115b3565b90600164ffffffffff8093160191821161142557565b91909164ffffffffff8080941691160191821161142557565b64ffffffffff908116600019019190821161142557565b64ffffffffff918216908216039190821161142557565b64ffffffffff80825460281c16926116a161167b85611604565b845469ffffffffff0000000000191660289190911b69ffffffffff000000000016178455565b736679BE25dDA6310cafe79E7D3062F7Ad5fc177c3906000907f0ef71f46e11a513c599eed9dd03576c33439bcfb1cee155316f90541e41649ba5b60ff906001906020888301886117068c6117018a89168b871b64ff000000001661164a565b61161a565b16600052808252604092808460002055848c16156117d85791809161177094936117386117328f611633565b8b6118f2565b918c865193611746856112b3565b16600052835284600020548252828201528351809581926314d2f97b60e11b835260048301611482565b03818b5af49182156117ce575060009161179c575b50647fffffffff915098821c1693011691956116dc565b82813d83116117c7575b6117b08183611324565b810103126108d35750647fffffffff905138611785565b503d6117a6565b513d6000823e3d90fd5b505050505050945050505050565b909164ffffffffff9081835460281c169361182961180386611604565b855469ffffffffff0000000000191660289190911b69ffffffffff000000000016178555565b736679BE25dDA6310cafe79E7D3062F7Ad5fc177c3916000915b60ff906001906020888301886118688c6117018a89168b871b64ff000000001661164a565b16600052808252604092808460002055848c16156117d85791809161189494936117386117328f611633565b03818b5af49182156117ce57506000916118c0575b50647fffffffff915098821c169301169195611843565b82813d83116118eb575b6118d48183611324565b810103126108d35750647fffffffff9051386118a9565b503d6118ca565b9061170161190e9264ff0000000060ff82169160201b1661164a565b90565b61190e90604080519161192383611265565b60803684378051518352602081510151602084015260208101518284015201516060820152611535565b602061190e9260406119f581519461196486611308565b60a03687378051518652848151015185870152828151015183870152606081510151606087015260808151015160808701526101208351916119a583611308565b60a036843760a081510151835260c0815101518784015260e0815101518584015261010081510151606084015251015160808201526119ee8351966119e988611265565b61159d565b865261159d565b838501528151908401520151606082015261153556fea26469706673582212207248e25f06e502fc36d4ffef82654de4c61dd522bf6dbcdbda02ae315836942364736f6c63430008140033",
  "deployedBytecode": "0x608060408181526004908136101561001657600080fd5b600092833560e01c908163055575eb146112225750806313fb8932146111f95780632b7ac3f3146111d157806331e766a5146111ac578063343393b5146111685780633dfb88b21461110d57806346a6f4a814610fce57806358bfc37914610e7b5780635bb9399514610e4a57806362a361bb14610e1b57806362b31f1e14610dd757806364e0ece114610cb0578063683f3dc314610c94578063715018a614610c3a5780637511a64f146109445780637d0a81c8146108ea5780638a2a3dfb1461084d5780638da5cb5b146108255780639cfced97146107c3578063ac98e5df14610781578063b87802c814610755578063bad62d20146103ef578063bea140b3146102ee578063edbfe83f146101c75763f2fde38b1461013757600080fd5b346101c35760203660031901126101c3576001600160a01b038235818116939192908490036101bf57610168611399565b83156101a957505082546001600160a01b0319811683178455167f8be0079c531659141344cd1fd0a4f28419497f9722a3daafe3b4186f6b6457e08380a380f35b51631e4fbdf760e01b8152908101849052602490fd5b8480fd5b8280fd5b8382346102ea57806003193601126102ea5736602312156102ea576101eb36611346565b9080516101f7816112cf565b8151610202816112eb565b610140918236833752815190610217826112b3565b848252846020809301528183519461022e866112eb565b82368737805186520151828501528251610247816112b3565b7f171e826ad4a870fd925e0bf0e87884e70e080879c2205ef10114f28a3b6f6dd78152828101927f2bd407d897fbbca9f88adfd2d15252e69de8c1564eb4d3d27162e259172f1a1d845284519561029d876112cf565b86526102a9828761194d565b945195519690865b600a83106102d5575050506101a09550519084015251610160830152610180820152f35b81806001928b518152019901920191976102b1565b5080fd5b50346101c35760603660031901126101c35736602312156101c357805161031481611297565b806064913683116103eb57849194905b8382106103db57505082516304b98e1d60e31b815293849186919083015b600383106103c1575050506020918173__$fa059fb1da6d850ca47ea49359bfe89f78$__5af49182156103b7578392610380575b6020838351908152f35b9091506020813d82116103af575b8161039b60209383611324565b810103126101c35760209250519038610376565b3d915061038e565b81513d85823e3d90fd5b815181528693506001929092019160209182019101610342565b8135815260209182019101610324565b8580fd5b509190346102ea5761040036611383565b610408611399565b600180549560001994601888901c60ff16868101818111610742576005111561072f576007810154908351956370f7b36160e01b87528387015260ff60249a8181168c890152818160081c16604489015260101c166064870152608486015260025460a486015260035460c48601523060e486015261010485015260209360018060a01b03908581610124818c867f0000000000000000000000000000000000000000000000000000000000000000165af1908115610725578991610708575b508180845416918160055416865193633634487360e01b8552868501528c8401521691826044830152336064830152856084830152868260a4818d857f0000000000000000000000000000000000000000000000000000000000000000165af19182156106fe57908a9182936106df575b50878c60c483885416848060055416978b51988995869463431a717560e01b86528d86015284015289604484015216958660648301523360848301528b60a4830152857f0000000000000000000000000000000000000000000000000000000000000000165af19283156106d5578b936106a6575b50846105b98a6113c5565b5001938651906105c882611297565b815288810192835281878201941684528454600160401b811015610694578c898201808855821015610682576002929160038c838a88955220910201915116936bffffffffffffffffffffffff60a01b9485835416178255838a8301915116858254161790550192511690825416179055549586019586116106705750519081527f60a11d5f71919d2a88fed66d85caaf6d1541f5b35e59875eaa9fd431fef071bf9190a380f35b634e487b7160e01b8752601190528686fd5b634e487b7160e01b8152603288528e90fd5b634e487b7160e01b8d52604187528d8dfd5b6106c7919350883d8a116106ce575b6106bf8183611324565b810190611463565b91386105ae565b503d6106b5565b86513d8d823e3d90fd5b6106f7919350883d8a116106ce576106bf8183611324565b9138610539565b85513d8c823e3d90fd5b61071f9150863d88116106ce576106bf8183611324565b386104c8565b84513d8b823e3d90fd5b634e487b7160e01b885260328252602488fd5b634e487b7160e01b895260118352602489fd5b5090346101c35760203660031901126101c3573560058110156101c35760209250600801549051908152f35b8382346102ea57816003193601126102ea5760809060ff6001548251928282168452828260081c166020850152828260101c169084015260181c166060820152f35b5090346101c35760a03660031901126101c35736602312156101c3578151906107eb82611308565b8160a4913683116103eb5760209550905b8282106108165750505061080f9061159d565b9051908152f35b813581529085019085016107fc565b8382346102ea57816003193601126102ea57905490516001600160a01b039091168152602090f35b5082346108d357366003190161018081126102ea57610140136108d357815190610876826112cf565b36602312156108d357825161088a816112eb565b80610144953687116108e657905b8682106108d6575050825282610143193601126108d3575060209261080f918351916108c3836112b3565b358252610164358583015261194d565b80fd5b8135815260209182019101610898565b8380fd5b5090346101c357366003190192608084126108d3578280519461090c86611297565b126108d3575060209261080f91835190610925826112b3565b3581526024358582015281526044358482015260643583820152611911565b50346101c357806003193601126101c35760249081359167ffffffffffffffff918284116103eb57366023850112156103eb57838501359283116103eb5781840193823691606086020101116103eb5761099c611399565b600654600160401b9081811015610c2857600191828201806006556109c0836113c5565b50508211610c16576109d1826113c5565b509042825588354201804211610c04578483015560038a9201915b878110610b8d57505050610a016005916113c5565b5001805469ffffffffffffffffffff1916601f17815593610a2185611661565b875b818110610a2e578880f35b610a3981838961143b565b606081360312610b8957845190610a4f82611297565b6001600160a01b0381358181168103610b8557835260209182810135908884860191838352013591898601928084527f30644e72e131a029b85045b68181585d2833e84879b9709143e1f593f0000001808080858196099380098180828187620292fc090894620292f809098b088181811115610b5c575b508103908111610b48578f9008610b3857928d610b33969593610b1d600794610b2e975190518d5191610af9836112b3565b8252858201528c5190610b0b82611297565b8152606485820152428d820152611911565b94511690525280878d2055886117e6565b611416565b610a23565b88516379fae7af60e01b81528d90fd5b5050634e487b7160e01b8e5260118d52898efd5b909150828101809111610b70579038610ac7565b5050634e487b7160e01b8f525060118d52898efd5b8c80fd5b8980fd5b610b9881898b61143b565b356001600160a01b0381168103610c0057835483811015610bee57610be99291610bca8289610b2e940188558761144b565b90919082549060031b9160018060a01b03809116831b921b1916179055565b6109ec565b634e487b7160e01b8d5260418c52888dfd5b8b80fd5b634e487b7160e01b8b5260118a52868bfd5b634e487b7160e01b8952601188528489fd5b634e487b7160e01b8852604187528388fd5b83346108d357806003193601126108d357610c53611399565b80546001600160a01b03198116825581906001600160a01b03167f8be0079c531659141344cd1fd0a4f28419497f9722a3daafe3b4186f6b6457e08280a380f35b8382346102ea57816003193601126102ea5760209051600a8152f35b50346101c357366003190161010081126108e6576080136101c357805191610cd783611265565b803560ff811681036101bf5783526024359160ff831683036101bf57602084019283526044359260ff841684036103eb578185019384526064359160ff83168303610dd3576060860192835280608319360112610dd3575190610d39826112b3565b6084358252602082019260a435845260c4359560018060a01b0397888816809803610b895760e435988916809903610b895760ff90610d76611399565b511663ff00000062ff000061ff00600154965160081b16935160101b16935160181b169363ffffffff19161717171760015551600255516003556bffffffffffffffffffffffff60a01b9182825416179055600554161760055580f35b8680fd5b8382346102ea57816003193601126102ea57517f00000000000000000000000000000000000000000000000000000000000000006001600160a01b03168152602090f35b8382346102ea57806003193601126102ea5736602312156102ea5760209061080f610e4536611346565b6114b0565b8382346102ea5760209061080f610e6036611383565b835191610e6c836112b3565b843684378252848201526114b0565b5082346108d357602092836003193601126102ea57803567ffffffffffffffff918282116108e657366023830112156108e65781810135928311610fbb57508160051b90845192610ece87840185611324565b835285830160248193830101913683116103eb5791859391602489969401905b828210610fa957505086519251858401929150845b818110610f905750505081610f209103601f198101835282611324565b84519080519084845b838110610f7b5750505081908101838152039060025afa15610f70577f30644e72e131a029b85045b68181585d2833e84879b9709143e1f593f00000019051069051908152f35b9051903d90823e3d90fd5b82810182015185820152879550869101610f29565b8251845289968896509384019390920191600101610f03565b81358152879550908601908601610eee565b634e487b7160e01b845260419052602483fd5b50346101c357806003193601126101c3576001600160a01b0360248035828116959291908690036101c35793611002611399565b61100c81356113c5565b5060058101805469ffffffffffffffffffff1916601f1781559690919061103288611661565b600392830191855b835480821015611109578387611050848861144b565b905490891b1c161461108d575b50808661106d611088938761144b565b905490881b1c1688526007602052610b2e898920548c6117e6565b61103a565b600019908082019081116110f757876110a96110ba928861144b565b905490891b1c16610bca848861144b565b845480156110e5576110889291016110d2818761144b565b898254918a1b1b1916905585559061105d565b634e487b7160e01b8952603184528a89fd5b634e487b7160e01b8952601184528a89fd5b8780f35b5090346101c35760803660031901126101c35736602312156101c35781519061113582611265565b816084913683116103eb5760209550905b8282106111595750505061080f90611535565b81358152908501908501611146565b8382346102ea57816003193601126102ea57517f00000000000000000000000000000000000000000000000000000000000000006001600160a01b03168152602090f35b5082346108d357806003193601126108d3575060025460035482519182526020820152f35b5090346101c357826003193601126101c3575490516001600160a01b03909116815260209150f35b8382346102ea57816003193601126102ea5760055490516001600160a01b039091168152602090f35b8490346102ea57816003193601126102ea577f00000000000000000000000000000000000000000000000000000000000000006001600160a01b03168152602090f35b6080810190811067ffffffffffffffff82111761128157604052565b634e487b7160e01b600052604160045260246000fd5b6060810190811067ffffffffffffffff82111761128157604052565b6040810190811067ffffffffffffffff82111761128157604052565b6020810190811067ffffffffffffffff82111761128157604052565b610140810190811067ffffffffffffffff82111761128157604052565b60a0810190811067ffffffffffffffff82111761128157604052565b90601f8019910116810190811067ffffffffffffffff82111761128157604052565b9060405191611354836112b3565b82604491821161137e576004905b82821061136e57505050565b8135815260209182019101611362565b600080fd5b604090600319011261137e576004359060243590565b6000546001600160a01b031633036113ad57565b60405163118cdaa760e01b8152336004820152602490fd5b600654811015611400576007906006600052027ff652222313e28459528d920b65115c16c04f3efc82aaedc97be59f3f377c0d3f0190600090565b634e487b7160e01b600052603260045260246000fd5b60001981146114255760010190565b634e487b7160e01b600052601160045260246000fd5b9190811015611400576060020190565b80548210156114005760005260206000200190600090565b9081602091031261137e57516001600160a01b038116810361137e5790565b6040810192916000915b6002831061149957505050565b60019082518152602080910192019201919061148c565b60206114d091604051809381926314d2f97b60e11b835260048301611482565b038173__$1540826e134b1b69b7091c82576ee3aadd$__5af4908115611529576000916114fb575090565b906020823d8211611521575b8161151460209383611324565b810103126108d357505190565b3d9150611507565b6040513d6000823e3d90fd5b60405163248f667760e01b81529060049060008284015b838210611586575050505060208160848173__$e61c65d9562aef5fa6ab22c0f787cf1e30$__5af4908115611529576000916114fb575090565b60019083518152602080910193019101909161154c565b604051630926f44b60e31b815290600090600483015b600583106115ed5750505060208160a48173__$46fbdf6658faf65265971bdad66851b86c$__5af4908115611529576000916114fb575090565b6001908251815260208091019201920191906115b3565b90600164ffffffffff8093160191821161142557565b91909164ffffffffff8080941691160191821161142557565b64ffffffffff908116600019019190821161142557565b64ffffffffff918216908216039190821161142557565b64ffffffffff80825460281c16926116a161167b85611604565b845469ffffffffff0000000000191660289190911b69ffffffffff000000000016178455565b73__$1540826e134b1b69b7091c82576ee3aadd$__906000907f0ef71f46e11a513c599eed9dd03576c33439bcfb1cee155316f90541e41649ba5b60ff906001906020888301886117068c6117018a89168b871b64ff000000001661164a565b61161a565b16600052808252604092808460002055848c16156117d85791809161177094936117386117328f611633565b8b6118f2565b918c865193611746856112b3565b16600052835284600020548252828201528351809581926314d2f97b60e11b835260048301611482565b03818b5af49182156117ce575060009161179c575b50647fffffffff915098821c1693011691956116dc565b82813d83116117c7575b6117b08183611324565b810103126108d35750647fffffffff905138611785565b503d6117a6565b513d6000823e3d90fd5b505050505050945050505050565b909164ffffffffff9081835460281c169361182961180386611604565b855469ffffffffff0000000000191660289190911b69ffffffffff000000000016178555565b73__$1540826e134b1b69b7091c82576ee3aadd$__916000915b60ff906001906020888301886118688c6117018a89168b871b64ff000000001661164a565b16600052808252604092808460002055848c16156117d85791809161189494936117386117328f611633565b03818b5af49182156117ce57506000916118c0575b50647fffffffff915098821c169301169195611843565b82813d83116118eb575b6118d48183611324565b810103126108d35750647fffffffff9051386118a9565b503d6118ca565b9061170161190e9264ff0000000060ff82169160201b1661164a565b90565b61190e90604080519161192383611265565b60803684378051518352602081510151602084015260208101518284015201516060820152611535565b602061190e9260406119f581519461196486611308565b60a03687378051518652848151015185870152828151015183870152606081510151606087015260808151015160808701526101208351916119a583611308565b60a036843760a081510151835260c0815101518784015260e0815101518584015261010081510151606084015251015160808201526119ee8351966119e988611265565b61159d565b865261159d565b838501528151908401520151606082015261153556fea26469706673582212207248e25f06e502fc36d4ffef82654de4c61dd522bf6dbcdbda02ae315836942364736f6c63430008140033",
  "libraries": {
    "PoseidonT3": "0x6679BE25dDA6310cafe79E7D3062F7Ad5fc177c3",
    "PoseidonT4": "0x2Bcfe85c9BBdEc18F48583655b0aFCcc4B084BB7",
    "PoseidonT5": "0x11131bA5CA1507417940BcA73e274112b6818532",
    "PoseidonT6": "0x4E2f5b0B7e0818B21839B4F26096775fd7e5E428"
  },
  "devdoc": {
    "errors": {
      "OwnableInvalidOwner(address)": [
        {
          "details": "The owner is not a valid owner account. (eg. `address(0)`)"
        }
      ],
      "OwnableUnauthorizedAccount(address)": [
        {
          "details": "The caller account is not authorized to perform an operation."
        }
      ]
    },
    "kind": "dev",
    "methods": {
      "createGame(uint256,(address,uint256,uint256)[])": {
        "params": {
          "_duration": "the duration of the game"
        }
      },
      "hash2(uint256[2])": {
        "params": {
          "array": "An array of two uint256 elements."
        },
        "returns": {
          "result": "The Poseidon hash of the two elements."
        }
      },
      "hash3(uint256[3])": {
        "params": {
          "array": "An array of three uint256 elements."
        },
        "returns": {
          "result": "The Poseidon hash of the three elements."
        }
      },
      "hash4(uint256[4])": {
        "params": {
          "array": "An array of four uint256 elements."
        },
        "returns": {
          "result": "The Poseidon hash of the four elements."
        }
      },
      "hash5(uint256[5])": {
        "params": {
          "array": "An array of five uint256 elements."
        },
        "returns": {
          "result": "The Poseidon hash of the five elements."
        }
      },
      "hashLeftRight(uint256,uint256)": {
        "params": {
          "left": "the first element to hash.",
          "right": "the second element to hash."
        },
        "returns": {
          "result": "The Poseidon hash of the two elements."
        }
      },
      "hashMessageAndEncPubKey((uint256[10]),(uint256,uint256))": {
        "params": {
          "_encPubKey": "the encryption public key to be hashed",
          "_message": "the message to be hashed"
        },
        "returns": {
          "msgHash": "The hash of the message and the encryption public key"
        }
      },
      "hashStateLeaf(((uint256,uint256),uint256,uint256))": {
        "params": {
          "_stateLeaf": "the state leaf to be hashed"
        },
        "returns": {
          "ciphertext": "The hash of the state leaf"
        }
      },
      "owner()": {
        "details": "Returns the address of the current owner."
      },
      "padAndHashMessage(uint256[2])": {
        "params": {
          "dataToPad": "the data to be padded"
        },
        "returns": {
          "message": "The padded message",
          "msgHash": "The hash of the padded message and encryption key",
          "padKey": "The padding public key"
        }
      },
      "renounceOwnership()": {
        "details": "Leaves the contract without owner. It will not be possible to call `onlyOwner` functions. Can only be called by the current owner. NOTE: Renouncing ownership will leave the contract without an owner, thereby disabling any functionality that is only available to the owner."
      },
      "sha256Hash(uint256[])": {
        "params": {
          "array": "The array of uint256 elements."
        },
        "returns": {
          "result": "The SHA256 hash of the array."
        }
      },
      "transferOwnership(address)": {
        "details": "Transfers ownership of the contract to a new account (`newOwner`). Can only be called by the current owner."
      }
    },
    "version": 1
  },
  "userdoc": {
    "errors": {
      "InvalidMessage()": [
        {
          "notice": "custom errors"
        }
      ]
    },
    "kind": "user",
    "methods": {
      "MESSAGE_DATA_LENGTH()": {
        "notice": "the length of a MACI message"
      },
      "createGame(uint256,(address,uint256,uint256)[])": {
        "notice": "create a new game"
      },
      "hash2(uint256[2])": {
        "notice": "Computes the Poseidon hash of two uint256 elements."
      },
      "hash3(uint256[3])": {
        "notice": "Computes the Poseidon hash of three uint256 elements."
      },
      "hash4(uint256[4])": {
        "notice": "Computes the Poseidon hash of four uint256 elements."
      },
      "hash5(uint256[5])": {
        "notice": "Computes the Poseidon hash of five uint256 elements."
      },
      "hashLeftRight(uint256,uint256)": {
        "notice": "Computes the Poseidon hash of two uint256 elements."
      },
      "hashMessageAndEncPubKey((uint256[10]),(uint256,uint256))": {
        "notice": "An utility function used to hash a MACI message and an encryption public key"
      },
      "hashStateLeaf(((uint256,uint256),uint256,uint256))": {
        "notice": "An utility function used to hash a state leaf"
      },
      "padAndHashMessage(uint256[2])": {
        "notice": "An utility function used to pad and hash a MACI message"
      },
      "sha256Hash(uint256[])": {
        "notice": "Computes the SHA256 hash of an array of uint256 elements."
      }
    },
    "version": 1
  },
  "storageLayout": {
    "storage": [
      {
        "astId": 8,
        "contract": "contracts/maci-contracts/Mafia.sol:Mafia",
        "label": "_owner",
        "offset": 0,
        "slot": "0",
        "type": "t_address"
      },
      {
        "astId": 266,
        "contract": "contracts/maci-contracts/Mafia.sol:Mafia",
        "label": "treeDepths",
        "offset": 0,
        "slot": "1",
        "type": "t_struct(TreeDepths)3286_storage"
      },
      {
        "astId": 269,
        "contract": "contracts/maci-contracts/Mafia.sol:Mafia",
        "label": "coordinatorPubKey",
        "offset": 0,
        "slot": "2",
        "type": "t_struct(PubKey)3259_storage"
      },
      {
        "astId": 271,
        "contract": "contracts/maci-contracts/Mafia.sol:Mafia",
        "label": "verifier",
        "offset": 0,
        "slot": "4",
        "type": "t_address"
      },
      {
        "astId": 273,
        "contract": "contracts/maci-contracts/Mafia.sol:Mafia",
        "label": "vkRegistry",
        "offset": 0,
        "slot": "5",
        "type": "t_address"
      },
      {
        "astId": 277,
        "contract": "contracts/maci-contracts/Mafia.sol:Mafia",
        "label": "games",
        "offset": 0,
        "slot": "6",
        "type": "t_array(t_struct(Game)256_storage)dyn_storage"
      },
      {
        "astId": 281,
        "contract": "contracts/maci-contracts/Mafia.sol:Mafia",
        "label": "playerHash",
        "offset": 0,
        "slot": "7",
        "type": "t_mapping(t_address,t_uint256)"
      },
      {
        "astId": 285,
        "contract": "contracts/maci-contracts/Mafia.sol:Mafia",
        "label": "emptyBallotRoots",
        "offset": 0,
        "slot": "8",
        "type": "t_array(t_uint256)5_storage"
      }
    ],
    "types": {
      "t_address": {
        "encoding": "inplace",
        "label": "address",
        "numberOfBytes": "20"
      },
      "t_array(t_address)dyn_storage": {
        "base": "t_address",
        "encoding": "dynamic_array",
        "label": "address[]",
        "numberOfBytes": "32"
      },
      "t_array(t_struct(Game)256_storage)dyn_storage": {
        "base": "t_struct(Game)256_storage",
        "encoding": "dynamic_array",
        "label": "struct Mafia.Game[]",
        "numberOfBytes": "32"
      },
      "t_array(t_struct(Poll)239_storage)dyn_storage": {
        "base": "t_struct(Poll)239_storage",
        "encoding": "dynamic_array",
        "label": "struct Mafia.Poll[]",
        "numberOfBytes": "32"
      },
      "t_array(t_uint256)5_storage": {
        "base": "t_uint256",
        "encoding": "inplace",
        "label": "uint256[5]",
        "numberOfBytes": "160"
      },
      "t_mapping(t_address,t_uint256)": {
        "encoding": "mapping",
        "key": "t_address",
        "label": "mapping(address => uint256)",
        "numberOfBytes": "32",
        "value": "t_uint256"
      },
      "t_mapping(t_uint256,t_uint256)": {
        "encoding": "mapping",
        "key": "t_uint256",
        "label": "mapping(uint256 => uint256)",
        "numberOfBytes": "32",
        "value": "t_uint256"
      },
      "t_string_storage": {
        "encoding": "bytes",
        "label": "string",
        "numberOfBytes": "32"
      },
      "t_struct(Game)256_storage": {
        "encoding": "inplace",
        "label": "struct Mafia.Game",
        "members": [
          {
            "astId": 241,
            "contract": "contracts/maci-contracts/Mafia.sol:Mafia",
            "label": "startTime",
            "offset": 0,
            "slot": "0",
            "type": "t_uint256"
          },
          {
            "astId": 243,
            "contract": "contracts/maci-contracts/Mafia.sol:Mafia",
            "label": "endTime",
            "offset": 0,
            "slot": "1",
            "type": "t_uint256"
          },
          {
            "astId": 245,
            "contract": "contracts/maci-contracts/Mafia.sol:Mafia",
            "label": "tallyUrl",
            "offset": 0,
            "slot": "2",
            "type": "t_string_storage"
          },
          {
            "astId": 248,
            "contract": "contracts/maci-contracts/Mafia.sol:Mafia",
            "label": "players",
            "offset": 0,
            "slot": "3",
            "type": "t_array(t_address)dyn_storage"
          },
          {
            "astId": 252,
            "contract": "contracts/maci-contracts/Mafia.sol:Mafia",
            "label": "polls",
            "offset": 0,
            "slot": "4",
            "type": "t_array(t_struct(Poll)239_storage)dyn_storage"
          },
          {
            "astId": 255,
            "contract": "contracts/maci-contracts/Mafia.sol:Mafia",
            "label": "lazyIMTData",
            "offset": 0,
            "slot": "5",
            "type": "t_struct(LazyIMTData)2496_storage"
          }
        ],
        "numberOfBytes": "224"
      },
      "t_struct(LazyIMTData)2496_storage": {
        "encoding": "inplace",
        "label": "struct LazyIMTData",
        "members": [
          {
            "astId": 2489,
            "contract": "contracts/maci-contracts/Mafia.sol:Mafia",
            "label": "maxIndex",
            "offset": 0,
            "slot": "0",
            "type": "t_uint40"
          },
          {
            "astId": 2491,
            "contract": "contracts/maci-contracts/Mafia.sol:Mafia",
            "label": "numberOfLeaves",
            "offset": 5,
            "slot": "0",
            "type": "t_uint40"
          },
          {
            "astId": 2495,
            "contract": "contracts/maci-contracts/Mafia.sol:Mafia",
            "label": "elements",
            "offset": 0,
            "slot": "1",
            "type": "t_mapping(t_uint256,t_uint256)"
          }
        ],
        "numberOfBytes": "64"
      },
      "t_struct(Poll)239_storage": {
        "encoding": "inplace",
        "label": "struct Mafia.Poll",
        "members": [
          {
            "astId": 234,
            "contract": "contracts/maci-contracts/Mafia.sol:Mafia",
            "label": "poll",
            "offset": 0,
            "slot": "0",
            "type": "t_address"
          },
          {
            "astId": 236,
            "contract": "contracts/maci-contracts/Mafia.sol:Mafia",
            "label": "messageProcessor",
            "offset": 0,
            "slot": "1",
            "type": "t_address"
          },
          {
            "astId": 238,
            "contract": "contracts/maci-contracts/Mafia.sol:Mafia",
            "label": "tally",
            "offset": 0,
            "slot": "2",
            "type": "t_address"
          }
        ],
        "numberOfBytes": "96"
      },
      "t_struct(PubKey)3259_storage": {
        "encoding": "inplace",
        "label": "struct DomainObjs.PubKey",
        "members": [
          {
            "astId": 3256,
            "contract": "contracts/maci-contracts/Mafia.sol:Mafia",
            "label": "x",
            "offset": 0,
            "slot": "0",
            "type": "t_uint256"
          },
          {
            "astId": 3258,
            "contract": "contracts/maci-contracts/Mafia.sol:Mafia",
            "label": "y",
            "offset": 0,
            "slot": "1",
            "type": "t_uint256"
          }
        ],
        "numberOfBytes": "64"
      },
      "t_struct(TreeDepths)3286_storage": {
        "encoding": "inplace",
        "label": "struct Params.TreeDepths",
        "members": [
          {
            "astId": 3279,
            "contract": "contracts/maci-contracts/Mafia.sol:Mafia",
            "label": "intStateTreeDepth",
            "offset": 0,
            "slot": "0",
            "type": "t_uint8"
          },
          {
            "astId": 3281,
            "contract": "contracts/maci-contracts/Mafia.sol:Mafia",
            "label": "messageTreeSubDepth",
            "offset": 1,
            "slot": "0",
            "type": "t_uint8"
          },
          {
            "astId": 3283,
            "contract": "contracts/maci-contracts/Mafia.sol:Mafia",
            "label": "messageTreeDepth",
            "offset": 2,
            "slot": "0",
            "type": "t_uint8"
          },
          {
            "astId": 3285,
            "contract": "contracts/maci-contracts/Mafia.sol:Mafia",
            "label": "voteOptionTreeDepth",
            "offset": 3,
            "slot": "0",
            "type": "t_uint8"
          }
        ],
        "numberOfBytes": "32"
      },
      "t_uint256": {
        "encoding": "inplace",
        "label": "uint256",
        "numberOfBytes": "32"
      },
      "t_uint40": {
        "encoding": "inplace",
        "label": "uint40",
        "numberOfBytes": "5"
      },
      "t_uint8": {
        "encoding": "inplace",
        "label": "uint8",
        "numberOfBytes": "1"
      }
    }
  }
}